{
  "contractName": "VotingSystem",
  "abi": [
    {
      "constant": true,
      "inputs": [
        {
          "name": "",
          "type": "uint256"
        }
      ],
      "name": "candidates",
      "outputs": [
        {
          "name": "id",
          "type": "uint256"
        },
        {
          "name": "name",
          "type": "string"
        },
        {
          "name": "party",
          "type": "string"
        },
        {
          "name": "vote",
          "type": "uint256"
        }
      ],
      "payable": false,
      "stateMutability": "view",
      "type": "function",
      "signature": "0x3477ee2e"
    },
    {
      "constant": true,
      "inputs": [],
      "name": "candidateCount",
      "outputs": [
        {
          "name": "",
          "type": "uint256"
        }
      ],
      "payable": false,
      "stateMutability": "view",
      "type": "function",
      "signature": "0xa9a981a3"
    },
    {
      "inputs": [],
      "payable": false,
      "stateMutability": "nonpayable",
      "type": "constructor",
      "signature": "constructor"
    },
    {
      "constant": false,
      "inputs": [
        {
          "name": "name",
          "type": "string"
        },
        {
          "name": "partyName",
          "type": "string"
        }
      ],
      "name": "addCandidate",
      "outputs": [],
      "payable": false,
      "stateMutability": "nonpayable",
      "type": "function",
      "signature": "0x26541b56"
    },
    {
      "constant": false,
      "inputs": [
        {
          "name": "candidateId",
          "type": "uint256"
        }
      ],
      "name": "vote",
      "outputs": [],
      "payable": false,
      "stateMutability": "nonpayable",
      "type": "function",
      "signature": "0x0121b93f"
    },
    {
      "constant": false,
      "inputs": [
        {
          "name": "candidateId",
          "type": "uint256"
        }
      ],
      "name": "unvote",
      "outputs": [],
      "payable": false,
      "stateMutability": "nonpayable",
      "type": "function",
      "signature": "0x51ec4285"
    }
  ],
  "bytecode": "0x60806040526000805534801561001457600080fd5b506100986040805190810160405280600d81526020017f55736861204e616e6468696e69000000000000000000000000000000000000008152506040805190810160405280600381526020017f4e4d4b0000000000000000000000000000000000000000000000000000000000815250610120640100000000026401000000009004565b61011b6040805190810160405280600b81526020017f53616261205661697373680000000000000000000000000000000000000000008152506040805190810160405280600381526020017f564d4b0000000000000000000000000000000000000000000000000000000000815250610120640100000000026401000000009004565b61023d565b600080546001908101808355604080516080810182528281526020808201888152828401889052606083018790529386528481529190942084518155915180519293610174939085019291909101906101a2565b50604082015180516101909160028401916020909101906101a2565b50606082015181600301559050505050565b828054600181600116156101000203166002900490600052602060002090601f016020900481019282601f106101e357805160ff1916838001178555610210565b82800160010185558215610210579182015b828111156102105782518255916020019190600101906101f5565b5061021c929150610220565b5090565b61023a91905b8082111561021c5760008155600101610226565b90565b6107a58061024c6000396000f3fe60806040526004361061006c5763ffffffff7c01000000000000000000000000000000000000000000000000000000006000350416630121b93f811461007157806326541b561461009d5780633477ee2e146101d757806351ec4285146102ed578063a9a981a314610317575b600080fd5b34801561007d57600080fd5b5061009b6004803603602081101561009457600080fd5b503561033e565b005b3480156100a957600080fd5b5061009b600480360360408110156100c057600080fd5b8101906020810181356401000000008111156100db57600080fd5b8201836020820111156100ed57600080fd5b8035906020019184600183028401116401000000008311171561010f57600080fd5b91908080601f016020809104026020016040519081016040528093929190818152602001838380828437600092019190915250929594936020810193503591505064010000000081111561016257600080fd5b82018360208201111561017457600080fd5b8035906020019184600183028401116401000000008311171561019657600080fd5b91908080601f0160208091040260200160405190810160405280939291908181526020018383808284376000920191909152509295506103da945050505050565b3480156101e357600080fd5b50610201600480360360208110156101fa57600080fd5b503561045c565b604051808581526020018060200180602001848152602001838103835286818151815260200191508051906020019080838360005b8381101561024e578181015183820152602001610236565b50505050905090810190601f16801561027b5780820380516001836020036101000a031916815260200191505b50838103825285518152855160209182019187019080838360005b838110156102ae578181015183820152602001610296565b50505050905090810190601f1680156102db5780820380516001836020036101000a031916815260200191505b50965050505050505060405180910390f35b3480156102f957600080fd5b5061009b6004803603602081101561031057600080fd5b503561059a565b34801561032357600080fd5b5061032c6106d8565b60408051918252519081900360200190f35b60008111801561035057506000548111155b15156103bd57604080517f08c379a000000000000000000000000000000000000000000000000000000000815260206004820152601560248201527f496e76616c69642063616e6469646174652049442e0000000000000000000000604482015290519081900360640190fd5b600090815260016020819052604090912060030180549091019055565b60008054600190810180835560408051608081018252828152602080820188815282840188905260608301879052938652848152919094208451815591518051929361042e939085019291909101906106de565b506040820151805161044a9160028401916020909101906106de565b50606082015181600301559050505050565b600160208181526000928352604092839020805481840180548651600296821615610100026000190190911695909504601f810185900485028601850190965285855290949193929091908301828280156104f85780601f106104cd576101008083540402835291602001916104f8565b820191906000526020600020905b8154815290600101906020018083116104db57829003601f168201915b50505060028085018054604080516020601f600019610100600187161502019094169590950492830185900485028101850190915281815295969594509092509083018282801561058a5780601f1061055f5761010080835404028352916020019161058a565b820191906000526020600020905b81548152906001019060200180831161056d57829003601f168201915b5050505050908060030154905084565b6000811180156105ac57506000548111155b151561061957604080517f08c379a000000000000000000000000000000000000000000000000000000000815260206004820152601560248201527f496e76616c69642063616e6469646174652049442e0000000000000000000000604482015290519081900360640190fd5b600081815260016020526040812060030154116106bd57604080517f08c379a000000000000000000000000000000000000000000000000000000000815260206004820152602160248201527f43616e64696461746520686173206e6f20766f74657320746f20756e766f746560448201527f2e00000000000000000000000000000000000000000000000000000000000000606482015290519081900360840190fd5b60009081526001602052604090206003018054600019019055565b60005481565b828054600181600116156101000203166002900490600052602060002090601f016020900481019282601f1061071f57805160ff191683800117855561074c565b8280016001018555821561074c579182015b8281111561074c578251825591602001919060010190610731565b5061075892915061075c565b5090565b61077691905b808211156107585760008155600101610762565b9056fea165627a7a72305820e6aad67c64275a3b38f5c8626c79b9e9bf62b40ab6cecb7baf7adb7246f38ef50029",
  "source": "// SPDX-License-Identifier: UNLICENSED\npragma solidity ^0.5.0;\n\ncontract VotingSystem {\n  uint public candidateCount=0;\n\n  struct Candidate{\n    uint id;\n    string name;\n    string party;\n    uint vote;\n  }\n\n  mapping(uint => Candidate) public candidates;\n  constructor() public { \n    addCandidate(\"Usha Nandhini\",\"NMK\");\n    addCandidate(\"Saba Vaissh\",\"VMK\");\n\n  }\n  function addCandidate(string memory name, string memory partyName)public{\n    candidateCount ++;\n    candidates[candidateCount] = Candidate(candidateCount,name,partyName,0);\n  }\n  function vote(uint candidateId) public {\nrequire(candidateId > 0 && candidateId <= candidateCount, \"Invalid candidate ID.\");\ncandidates[candidateId].vote++;\n}\n\nfunction unvote(uint candidateId) public {\nrequire(candidateId > 0 && candidateId <= candidateCount, \"Invalid candidate ID.\");\nrequire(candidates[candidateId].vote > 0, \"Candidate has no votes to unvote.\");\ncandidates[candidateId].vote--;\n}\n}\n\n    \n",
  "sourcePath": "/Users/ushanandhini/Desktop/Electronic Voting System/contracts/VotingSystem.sol",
  "compiler": {
    "name": "solc",
    "version": "0.5.0+commit.1d4f565a.Emscripten.clang"
  },
  "schemaVersion": "3.0.1",
  "updatedAt": "2023-05-13T09:48:16.034Z",
  "devdoc": {
    "methods": {}
  },
  "userdoc": {
    "methods": {}
  }
}