{
  "contractName": "VotingSystem",
  "abi": [
    {
      "constant": true,
      "inputs": [
        {
          "name": "",
          "type": "uint256"
        }
      ],
      "name": "candidates",
      "outputs": [
        {
          "name": "id",
          "type": "uint256"
        },
        {
          "name": "name",
          "type": "string"
        },
        {
          "name": "party",
          "type": "string"
        },
        {
          "name": "voteCount",
          "type": "uint256"
        }
      ],
      "payable": false,
      "stateMutability": "view",
      "type": "function",
      "signature": "0x3477ee2e"
    },
    {
      "constant": true,
      "inputs": [],
      "name": "numCandidates",
      "outputs": [
        {
          "name": "",
          "type": "uint256"
        }
      ],
      "payable": false,
      "stateMutability": "view",
      "type": "function",
      "signature": "0x5216509a"
    },
    {
      "constant": true,
      "inputs": [
        {
          "name": "",
          "type": "uint256"
        }
      ],
      "name": "votes",
      "outputs": [
        {
          "name": "candidateId",
          "type": "uint256"
        },
        {
          "name": "voterId",
          "type": "uint256"
        }
      ],
      "payable": false,
      "stateMutability": "view",
      "type": "function",
      "signature": "0x5df81330"
    },
    {
      "constant": true,
      "inputs": [
        {
          "name": "",
          "type": "uint256"
        }
      ],
      "name": "voters",
      "outputs": [
        {
          "name": "",
          "type": "bool"
        }
      ],
      "payable": false,
      "stateMutability": "view",
      "type": "function",
      "signature": "0xda58c7d9"
    },
    {
      "constant": true,
      "inputs": [
        {
          "name": "",
          "type": "uint256"
        }
      ],
      "name": "hasVoted",
      "outputs": [
        {
          "name": "",
          "type": "bool"
        }
      ],
      "payable": false,
      "stateMutability": "view",
      "type": "function",
      "signature": "0xecca031f"
    },
    {
      "inputs": [
        {
          "name": "candidateNames",
          "type": "string[]"
        },
        {
          "name": "partyNames",
          "type": "string[]"
        }
      ],
      "payable": false,
      "stateMutability": "nonpayable",
      "type": "constructor",
      "signature": "constructor"
    },
    {
      "anonymous": false,
      "inputs": [
        {
          "indexed": false,
          "name": "candidateId",
          "type": "uint256"
        },
        {
          "indexed": false,
          "name": "name",
          "type": "string"
        },
        {
          "indexed": false,
          "name": "party",
          "type": "string"
        }
      ],
      "name": "AddCandidate",
      "type": "event",
      "signature": "0x0906c2ee7f939354c680a8b38863e754d3025a9c600c6cc7078cdaf4bbb7fbfe"
    },
    {
      "anonymous": false,
      "inputs": [
        {
          "indexed": false,
          "name": "voterId",
          "type": "uint256"
        }
      ],
      "name": "RegisterVoter",
      "type": "event",
      "signature": "0xb684dfea2fd586d786a6d79a63d26f7123b704486ae455d1bfff3b482deeeccf"
    },
    {
      "anonymous": false,
      "inputs": [
        {
          "indexed": false,
          "name": "voter",
          "type": "address"
        },
        {
          "indexed": false,
          "name": "candidateId",
          "type": "uint256"
        }
      ],
      "name": "CastVote",
      "type": "event",
      "signature": "0x6dfaf9f72a4f8d7ca175050b9ebbe67c0fa6e9792fafb145f9e4224a6b49aa95"
    },
    {
      "constant": false,
      "inputs": [
        {
          "name": "voterId",
          "type": "uint256"
        }
      ],
      "name": "register",
      "outputs": [],
      "payable": false,
      "stateMutability": "nonpayable",
      "type": "function",
      "signature": "0xf207564e"
    },
    {
      "constant": false,
      "inputs": [
        {
          "name": "candidateId",
          "type": "uint256"
        },
        {
          "name": "voterId",
          "type": "uint256"
        }
      ],
      "name": "vote",
      "outputs": [],
      "payable": false,
      "stateMutability": "nonpayable",
      "type": "function",
      "signature": "0xb384abef"
    },
    {
      "constant": true,
      "inputs": [],
      "name": "getElectionResult",
      "outputs": [
        {
          "name": "",
          "type": "uint256"
        }
      ],
      "payable": false,
      "stateMutability": "view",
      "type": "function",
      "signature": "0xca3eb443"
    }
  ],
  "bytecode": "0x608060405260006004553480156200001657600080fd5b5060405162000e5138038062000e5183398101806040526200003c919081019062000341565b805182511462000083576040517f08c379a00000000000000000000000000000000000000000000000000000000081526004016200007a9062000451565b60405180910390fd5b60005b8251811015620001c85760006080604051908101604052808381526020018584815181101515620000b357fe5b9060200190602002015181526020018484815181101515620000d157fe5b6020908102909101810151825260009181018290528354600181810180875595845292829020845160049092020190815583820151805191936200011c9390850192910190620001d1565b50604082015180516200013a916002840191602090910190620001d1565b50606082015181600301555050507f0906c2ee7f939354c680a8b38863e754d3025a9c600c6cc7078cdaf4bbb7fbfe8184838151811015156200017957fe5b9060200190602002015184848151811015156200019257fe5b90602001906020020151604051620001ad9392919062000469565b60405180910390a16004805460019081019091550162000086565b5050506200055d565b828054600181600116156101000203166002900490600052602060002090601f016020900481019282601f106200021457805160ff191683800117855562000244565b8280016001018555821562000244579182015b828111156200024457825182559160200191906001019062000227565b506200025292915062000256565b5090565b6200027391905b808211156200025257600081556001016200025d565b90565b6000601f820183136200028857600080fd5b81516200029f6200029982620004d3565b620004ac565b81815260209384019390925082018360005b83811015620002e15781518601620002ca8882620002eb565b8452506020928301929190910190600101620002b1565b5050505092915050565b6000601f82018313620002fd57600080fd5b81516200030e6200029982620004f4565b915080825260208301602083018583830111156200032b57600080fd5b6200033883828462000520565b50505092915050565b600080604083850312156200035557600080fd5b82516001604060020a038111156200036c57600080fd5b6200037a8582860162000276565b92505060208301516001604060020a038111156200039757600080fd5b620003a58582860162000276565b9150509250929050565b6000620003bc826200051c565b808452620003d281602086016020860162000520565b620003dd8162000553565b9093016020019392505050565b603081527f4d69736d61746368206265747765656e2063616e646964617465206e616d657360208201527f20616e64207061727479206e616d657300000000000000000000000000000000604082015260600190565b6200044b8162000273565b82525050565b602080825281016200046381620003ea565b92915050565b6060810162000479828662000440565b81810360208301526200048d8185620003af565b90508181036040830152620004a38184620003af565b95945050505050565b6040518181016001604060020a0381118282101715620004cb57600080fd5b604052919050565b60006001604060020a03821115620004ea57600080fd5b5060209081020190565b60006001604060020a038211156200050b57600080fd5b506020601f91909101601f19160190565b5190565b60005b838110156200053d57818101518382015260200162000523565b838111156200054d576000848401525b50505050565b601f01601f191690565b6108e4806200056d6000396000f3fe60806040526004361061008d5763ffffffff7c01000000000000000000000000000000000000000000000000000000006000350416633477ee2e81146100925780635216509a146100cb5780635df81330146100ed578063b384abef1461011b578063ca3eb4431461013d578063da58c7d914610152578063ecca031f1461017f578063f207564e1461019f575b600080fd5b34801561009e57600080fd5b506100b26100ad3660046105e7565b6101bf565b6040516100c294939291906107da565b60405180910390f35b3480156100d757600080fd5b506100e0610321565b6040516100c291906107cc565b3480156100f957600080fd5b5061010d6101083660046105e7565b610327565b6040516100c2929190610826565b34801561012757600080fd5b5061013b61013636600461060d565b610340565b005b34801561014957600080fd5b506100e0610495565b34801561015e57600080fd5b5061017261016d3660046105e7565b610522565b6040516100c29190610778565b34801561018b57600080fd5b5061017261019a3660046105e7565b610537565b3480156101ab57600080fd5b5061013b6101ba3660046105e7565b61054c565b60008054829081106101cd57fe5b9060005260206000209060040201600091509050806000015490806001018054600181600116156101000203166002900480601f01602080910402602001604051908101604052809291908181526020018280546001816001161561010002031660029004801561027f5780601f106102545761010080835404028352916020019161027f565b820191906000526020600020905b81548152906001019060200180831161026257829003601f168201915b50505060028085018054604080516020601f60001961010060018716150201909416959095049283018590048502810185019091528181529596959450909250908301828280156103115780601f106102e657610100808354040283529160200191610311565b820191906000526020600020905b8154815290600101906020018083116102f457829003601f168201915b5050505050908060030154905084565b60045481565b6003602052600090815260409020805460019091015482565b60008181526001602052604090205460ff16151561037c5760405160e560020a62461bcd028152600401610373906107ac565b60405180910390fd5b60005482106103a05760405160e560020a62461bcd0281526004016103739061079c565b60008181526002602052604090205460ff16156103d25760405160e560020a62461bcd0281526004016103739061078c565b6000818152600260209081526040808320805460ff1916600190811790915581518083018352868152808401868152868652600385528386209151825551908201558584526005835290832080549182018155808452918320018390558382525481548392908590811061044257fe5b9060005260206000209060040201600301819055507f6dfaf9f72a4f8d7ca175050b9ebbe67c0fa6e9792fafb145f9e4224a6b49aa95338460405161048892919061075d565b60405180910390a1505050565b60008080805b60005481101561051b57826000828154811015156104b557fe5b90600052602060002090600402016003015411156105135760008054829081106104db57fe5b90600052602060002090600402016003015492506000818154811015156104fe57fe5b90600052602060002090600402016000015491505b60010161049b565b5091505090565b60016020526000908152604090205460ff1681565b60026020526000908152604090205460ff1681565b60008181526001602052604090205460ff161561057e5760405160e560020a62461bcd028152600401610373906107bc565b600081815260016020819052604091829020805460ff19169091179055517fb684dfea2fd586d786a6d79a63d26f7123b704486ae455d1bfff3b482deeeccf906105c99083906107cc565b60405180910390a150565b60006105e08235610856565b9392505050565b6000602082840312156105f957600080fd5b600061060584846105d4565b949350505050565b6000806040838503121561062057600080fd5b600061062c85856105d4565b925050602061063d858286016105d4565b9150509250929050565b61065081610859565b82525050565b61065081610838565b600061066a82610834565b80845261067e816020860160208601610870565b610687816108a0565b9093016020019392505050565b601781527f596f75206861766520616c726561647920766f7465642e000000000000000000602082015260400190565b601181527f496e76616c69642063616e646964617465000000000000000000000000000000602082015260400190565b601981527f4e6f742072656769737465726564206173206120766f74657200000000000000602082015260400190565b601d81527f416c72656164792072656769737465726564206173206120766f746572000000602082015260400190565b61065081610856565b6040810161076b8285610647565b6105e06020830184610754565b602081016107868284610656565b92915050565b6020808252810161078681610694565b60208082528101610786816106c4565b60208082528101610786816106f4565b6020808252810161078681610724565b602081016107868284610754565b608081016107e88287610754565b81810360208301526107fa818661065f565b9050818103604083015261080e818561065f565b905061081d6060830184610754565b95945050505050565b6040810161076b8285610754565b5190565b151590565b73ffffffffffffffffffffffffffffffffffffffff1690565b90565b60006107868260006107868260006107868261083d565b60005b8381101561088b578181015183820152602001610873565b8381111561089a576000848401525b50505050565b601f01601f19169056fea265627a7a72305820ee949a0ff178927048edbd74674c1fbfc9c795e3fdc65c82bc767dc9bdfcb7136c6578706572696d656e74616cf50037",
  "source": "// SPDX-License-Identifier: UNLICENSED\npragma solidity ^0.5.0;\npragma experimental ABIEncoderV2;\n\ncontract VotingSystem {\n    struct Candidate {\n     uint id;\n        string name;\n  string party;\n        uint voteCount;\n    }\n\n    struct Vote {\n        uint candidateId;\n    uint voterId;\n    }\n\n    Candidate[] public candidates;\n    mapping(uint => bool) public voters;\n    mapping(uint => bool) public hasVoted;\n mapping(uint => Vote) public votes;\n    uint public numCandidates = 0;\n\nmapping(uint => uint[]) private graph;\n\n    event AddCandidate(uint candidateId, string name, string party);\nevent RegisterVoter(uint voterId);\n    event CastVote(address voter, uint candidateId);\n\n    constructor(string[] memory candidateNames, string[] memory partyNames) public{\n    require(candidateNames.length == partyNames.length, \"Mismatch between candidate names and party names\");\n\n    for (uint i = 0; i < candidateNames.length; i++) {\n        candidates.push(Candidate(i, candidateNames[i], partyNames[i], 0));\n        emit AddCandidate(i, candidateNames[i], partyNames[i]);\n        numCandidates++;\n        }\n    }\n\n    function register(uint voterId) public {\n    require(!voters[voterId], \"Already registered as a voter\");\n    voters[voterId] = true;\n    emit RegisterVoter(voterId);\n    }\n\n    function vote(uint candidateId, uint voterId) public {\n     require(voters[voterId], \"Not registered as a voter\");\n     require(candidateId < candidates.length, \"Invalid candidate\");\n    require(!hasVoted[voterId], \"You have already voted.\");\n\n    hasVoted[voterId] = true;\n        \n    uint voteId = voterId;\n    votes[voteId] = Vote(candidateId, voterId);\n\n       graph[candidateId].push(voterId);\n        \n    candidates[candidateId].voteCount = graph[candidateId].length;\n\n     emit CastVote(msg.sender, candidateId);\n    }\n\n    function getElectionResult() public view returns (uint) {\n      uint maxVotes = 0;\n        uint winningCandidateId;\n\n     for (uint i = 0; i < candidates.length; i++) {\n         if (candidates[i].voteCount > maxVotes) {\n             maxVotes = candidates[i].voteCount;\n        winningCandidateId = candidates[i].id;\n        }\n        }\n\n        return winningCandidateId;\n    }\n}\n",
  "sourcePath": "/Users/ushanandhini/Desktop/evs/EVS/contracts/VotingSystem.sol",
  "compiler": {
    "name": "solc",
    "version": "0.5.0+commit.1d4f565a.Emscripten.clang"
  },
  "schemaVersion": "3.0.1",
  "updatedAt": "2023-05-30T12:14:12.199Z",
  "devdoc": {
    "methods": {}
  },
  "userdoc": {
    "methods": {}
  }
}