{
  "contractName": "VotingSystem",
  "abi": [
    {
      "constant": true,
      "inputs": [],
      "name": "Vote",
      "outputs": [
        {
          "name": "",
          "type": "uint256"
        }
      ],
      "payable": false,
      "stateMutability": "view",
      "type": "function",
      "signature": "0x6bf52ffa"
    }
  ],
  "bytecode": "0x608060405260008055348015601357600080fd5b506099806100226000396000f3fe608060405260043610603e5763ffffffff7c01000000000000000000000000000000000000000000000000000000006000350416636bf52ffa81146043575b600080fd5b348015604e57600080fd5b5060556067565b60408051918252519081900360200190f35b6000548156fea165627a7a7230582062afd3b574dcdc39635d881abfd0cf44d04b1a12d664a2736f3ff7b436cf29930029",
  "source": "// SPDX-License-Identifier: UNLICENSED\npragma solidity ^0.5.0;\n\ncontract VotingSystem{\n    uint public Vote=0;\n}\n",
  "sourcePath": "/Users/ushanandhini/Desktop/Electronic Voting System/contracts/VotingSystem.sol",
  "compiler": {
    "name": "solc",
    "version": "0.5.0+commit.1d4f565a.Emscripten.clang"
  },
  "schemaVersion": "3.0.1",
  "updatedAt": "2023-05-12T17:06:51.624Z",
  "devdoc": {
    "methods": {}
  },
  "userdoc": {
    "methods": {}
  }
}